{
  "contractName": "ShoppingMallItem",
  "abi": [
    {
      "constant": true,
      "inputs": [],
      "name": "index",
      "outputs": [
        {
          "name": "",
          "type": "uint256"
        }
      ],
      "payable": false,
      "stateMutability": "view",
      "type": "function"
    },
    {
      "constant": true,
      "inputs": [],
      "name": "winNum",
      "outputs": [
        {
          "name": "",
          "type": "uint256"
        }
      ],
      "payable": false,
      "stateMutability": "view",
      "type": "function"
    },
    {
      "constant": true,
      "inputs": [],
      "name": "price",
      "outputs": [
        {
          "name": "",
          "type": "uint256"
        }
      ],
      "payable": false,
      "stateMutability": "view",
      "type": "function"
    },
    {
      "inputs": [
        {
          "name": "_distribution",
          "type": "uint256"
        },
        {
          "name": "_totalPrice",
          "type": "uint256"
        },
        {
          "name": "_ownerAddress",
          "type": "address"
        }
      ],
      "payable": false,
      "stateMutability": "nonpayable",
      "type": "constructor"
    },
    {
      "constant": false,
      "inputs": [
        {
          "name": "_buyer",
          "type": "address"
        }
      ],
      "name": "Staking",
      "outputs": [],
      "payable": true,
      "stateMutability": "payable",
      "type": "function"
    },
    {
      "constant": true,
      "inputs": [],
      "name": "remainStaking",
      "outputs": [
        {
          "name": "",
          "type": "uint256"
        }
      ],
      "payable": false,
      "stateMutability": "view",
      "type": "function"
    },
    {
      "constant": false,
      "inputs": [],
      "name": "lottery",
      "outputs": [
        {
          "name": "",
          "type": "uint256"
        }
      ],
      "payable": false,
      "stateMutability": "nonpayable",
      "type": "function"
    },
    {
      "constant": true,
      "inputs": [],
      "name": "getWinner",
      "outputs": [
        {
          "name": "",
          "type": "address"
        }
      ],
      "payable": false,
      "stateMutability": "view",
      "type": "function"
    }
  ],
  "bytecode": "0x608060405260006005556001600660006101000a81548160ff02191690831515021790555034801561003057600080fd5b5060405160608061097c83398101806040528101908080519060200190929190805190602001909291908051906020019092919050505060008311801561008e575060008173ffffffffffffffffffffffffffffffffffffffff1614155b1515610102576040517f08c379a00000000000000000000000000000000000000000000000000000000081526004018080602001828103825260178152602001807f506c6561736520636865636b2074686520696e7075742100000000000000000081525060200191505060405180910390fd5b336000806101000a81548173ffffffffffffffffffffffffffffffffffffffff021916908373ffffffffffffffffffffffffffffffffffffffff160217905550826001819055508160028190555080600360006101000a81548173ffffffffffffffffffffffffffffffffffffffff021916908373ffffffffffffffffffffffffffffffffffffffff1602179055506001546002548115156101a057fe5b04600881905550826007819055505050506107bc806101c06000396000f300608060405260043610610083576000357c0100000000000000000000000000000000000000000000000000000000900463ffffffff16806316442239146100885780632986c0e5146100b357806351dc7659146100de5780638e7ea5b214610109578063a035b1fe14610160578063ba13a5721461018b578063db9b42f5146101b6575b600080fd5b34801561009457600080fd5b5061009d6101ec565b6040518082815260200191505060405180910390f35b3480156100bf57600080fd5b506100c86101fa565b6040518082815260200191505060405180910390f35b3480156100ea57600080fd5b506100f3610200565b6040518082815260200191505060405180910390f35b34801561011557600080fd5b5061011e610206565b604051808273ffffffffffffffffffffffffffffffffffffffff1673ffffffffffffffffffffffffffffffffffffffff16815260200191505060405180910390f35b34801561016c57600080fd5b50610175610243565b6040518082815260200191505060405180910390f35b34801561019757600080fd5b506101a0610249565b6040518082815260200191505060405180910390f35b6101ea600480360381019080803573ffffffffffffffffffffffffffffffffffffffff16906020019092919050505061046e565b005b600060055460015403905090565b60055481565b60075481565b600060046000600754815260200190815260200160002060009054906101000a900473ffffffffffffffffffffffffffffffffffffffff16905090565b60085481565b60008060009054906101000a900473ffffffffffffffffffffffffffffffffffffffff1673ffffffffffffffffffffffffffffffffffffffff163373ffffffffffffffffffffffffffffffffffffffff16141515610335576040517f08c379a000000000000000000000000000000000000000000000000000000000815260040180806020018281038252602e8152602001807f546869732066756e6374696f6e2063616e20626520757365642062792073657281526020017f766963652070726f76696465722100000000000000000000000000000000000081525060400191505060405180910390fd5b600660009054906101000a900460ff1615156103b9576040517f08c379a00000000000000000000000000000000000000000000000000000000081526004018080602001828103825260108152602001807f5374616b696e67206973206f766572210000000000000000000000000000000081525060200191505060405180910390fd5b600060055414151515610434576040517f08c379a000000000000000000000000000000000000000000000000000000000815260040180806020018281038252601e8152602001807f5468657265206973206e6f207374616b6520696e2074686973206974656d000081525060200191505060405180910390fd5b6000600660006101000a81548160ff02191690831515021790555060055460014303406001900481151561046457fe5b0660078190555090565b600660009054906101000a900460ff1615156104f2576040517f08c379a00000000000000000000000000000000000000000000000000000000081526004018080602001828103825260108152602001807f5374616b696e67206973206f766572210000000000000000000000000000000081525060200191505060405180910390fd5b6000809054906101000a900473ffffffffffffffffffffffffffffffffffffffff1673ffffffffffffffffffffffffffffffffffffffff163373ffffffffffffffffffffffffffffffffffffffff161415156105dc576040517f08c379a000000000000000000000000000000000000000000000000000000000815260040180806020018281038252602e8152602001807f546869732066756e6374696f6e2063616e20626520757365642062792073657281526020017f766963652070726f76696465722100000000000000000000000000000000000081525060400191505060405180910390fd5b6001546001600554011115151561065b576040517f08c379a00000000000000000000000000000000000000000000000000000000081526004018080602001828103825260138152602001807f646973747269627574696f6e206973206d61780000000000000000000000000081525060200191505060405180910390fd5b60085434101515156106d5576040517f08c379a00000000000000000000000000000000000000000000000000000000081526004018080602001828103825260198152602001807f596f75206861766520746f20706179206d6f7265206b6c61790000000000000081525060200191505060405180910390fd5b60085434111561072b578073ffffffffffffffffffffffffffffffffffffffff166108fc60085434039081150290604051600060405180830381858888f19350505050158015610729573d6000803e3d6000fd5b505b80600460006005600081548092919060010191905055815260200190815260200160002060006101000a81548173ffffffffffffffffffffffffffffffffffffffff021916908373ffffffffffffffffffffffffffffffffffffffff160217905550505600a165627a7a72305820856389b76144bc47a9d78451e15b374c1c8d13737ee9839b03ab2b4f5550a25a0029",
  "source": "pragma solidity >=0.4.0 <0.6.0;\n\ncontract ShoppingMallItem{\n    address serviceProvider;\n    uint distribution;\n    uint totalPrice;\n    address ownerAddress;\n    mapping(uint=>address)list;\n    uint public index = 0;\n    bool ok = true;\n    uint public winNum;\n    uint public price;\n    \n    modifier provider() {\n        require(msg.sender == serviceProvider, \"This function can be used by service provider!\");\n        _;\n    }\n    modifier Ok() {\n        require(ok, \"Staking is over!\");\n        _;\n    }\n    \n    constructor (uint _distribution, uint _totalPrice, address _ownerAddress) public {\n        require(_distribution > 0 && _ownerAddress != 0x0, \"Please check the input!\");\n        serviceProvider = msg.sender;\n        distribution = _distribution;\n        totalPrice = _totalPrice;\n        ownerAddress = _ownerAddress;\n        price = totalPrice / distribution;\n        winNum = _distribution;\n    }\n    \n    function Staking(address _buyer) Ok provider payable public {\n        require(index + 1 <= distribution, \"distribution is max\");\n        require(msg.value >= price, \"You have to pay more klay\");\n        if (msg.value > price) {\n            address(_buyer).transfer(msg.value - price);\n        }\n        list[index++] = _buyer;\n    }\n    \n    function remainStaking() public view returns(uint) {\n        return distribution - index;\n    }\n    \n    function lottery() public provider Ok returns(uint){\n        require(index != 0, \"There is no stake in this item\");\n        ok = false;\n        winNum = uint(blockhash(block.number - 1)) % index;\n    }\n    \n    function getWinner() public view returns(address) {\n        return list[winNum];\n    }\n}",
  "sourcePath": "/home/lee/KlaytnShoppingMall/klaytn_communication_api/shoppingmall/contracts/ShoppingMallItem.sol",
  "compiler": {
    "name": "solc",
    "version": "0.4.25+commit.59dbf8f1.Emscripten.clang"
  },
  "schemaVersion": "2.0.2",
  "updatedAt": "2019-10-15T11:58:51.692Z"
}